{
  "_format": "hh-sol-artifact-1",
  "contractName": "AddUser",
  "sourceName": "contracts/AddUser.sol",
  "abi": [
    {
      "anonymous": false,
      "inputs": [
        {
          "indexed": false,
          "internalType": "uint256",
          "name": "id",
          "type": "uint256"
        },
        {
          "indexed": true,
          "internalType": "address",
          "name": "useraddress",
          "type": "address"
        },
        {
          "indexed": false,
          "internalType": "uint256",
          "name": "timestamp",
          "type": "uint256"
        },
        {
          "indexed": false,
          "internalType": "string",
          "name": "name",
          "type": "string"
        },
        {
          "indexed": false,
          "internalType": "string",
          "name": "datahash",
          "type": "string"
        }
      ],
      "name": "userRecord",
      "type": "event"
    },
    {
      "inputs": [
        {
          "internalType": "address",
          "name": "useraddress",
          "type": "address"
        },
        {
          "internalType": "string",
          "name": "name",
          "type": "string"
        },
        {
          "internalType": "string",
          "name": "datahash",
          "type": "string"
        }
      ],
      "name": "addUser",
      "outputs": [],
      "stateMutability": "nonpayable",
      "type": "function"
    },
    {
      "inputs": [],
      "name": "getTimeStamp",
      "outputs": [
        {
          "internalType": "uint256",
          "name": "",
          "type": "uint256"
        }
      ],
      "stateMutability": "view",
      "type": "function"
    },
    {
      "inputs": [
        {
          "internalType": "uint256",
          "name": "id",
          "type": "uint256"
        }
      ],
      "name": "getUserData",
      "outputs": [
        {
          "internalType": "uint256",
          "name": "",
          "type": "uint256"
        },
        {
          "internalType": "address",
          "name": "",
          "type": "address"
        },
        {
          "internalType": "uint256",
          "name": "",
          "type": "uint256"
        },
        {
          "internalType": "string",
          "name": "",
          "type": "string"
        },
        {
          "internalType": "string",
          "name": "",
          "type": "string"
        }
      ],
      "stateMutability": "view",
      "type": "function"
    },
    {
      "inputs": [],
      "name": "getid",
      "outputs": [
        {
          "internalType": "uint256",
          "name": "",
          "type": "uint256"
        }
      ],
      "stateMutability": "view",
      "type": "function"
    },
    {
      "inputs": [],
      "name": "getname",
      "outputs": [
        {
          "internalType": "string",
          "name": "",
          "type": "string"
        }
      ],
      "stateMutability": "view",
      "type": "function"
    },
    {
      "inputs": [],
      "name": "id",
      "outputs": [
        {
          "internalType": "uint256",
          "name": "",
          "type": "uint256"
        }
      ],
      "stateMutability": "view",
      "type": "function"
    },
    {
      "inputs": [
        {
          "internalType": "address",
          "name": "",
          "type": "address"
        }
      ],
      "name": "userByAddress",
      "outputs": [
        {
          "internalType": "uint256",
          "name": "id",
          "type": "uint256"
        },
        {
          "internalType": "address",
          "name": "useraddress",
          "type": "address"
        },
        {
          "internalType": "uint256",
          "name": "timestamp",
          "type": "uint256"
        },
        {
          "internalType": "string",
          "name": "name",
          "type": "string"
        },
        {
          "internalType": "string",
          "name": "datahash",
          "type": "string"
        }
      ],
      "stateMutability": "view",
      "type": "function"
    },
    {
      "inputs": [
        {
          "internalType": "uint256",
          "name": "",
          "type": "uint256"
        }
      ],
      "name": "users",
      "outputs": [
        {
          "internalType": "uint256",
          "name": "id",
          "type": "uint256"
        },
        {
          "internalType": "address",
          "name": "useraddress",
          "type": "address"
        },
        {
          "internalType": "uint256",
          "name": "timestamp",
          "type": "uint256"
        },
        {
          "internalType": "string",
          "name": "name",
          "type": "string"
        },
        {
          "internalType": "string",
          "name": "datahash",
          "type": "string"
        }
      ],
      "stateMutability": "view",
      "type": "function"
    }
  ],
  "bytecode": "0x608060405234801561001057600080fd5b5061104a806100206000396000f3fe608060405234801561001057600080fd5b50600436106100885760003560e01c8063c6ea59b91161005b578063c6ea59b914610147578063d7554a6814610165578063da235b2214610181578063f513f38e1461019f57610088565b80631fef580c1461008d578063365b98b2146100c1578063989e5ea9146100f5578063af640d0f14610129575b600080fd5b6100a760048036038101906100a29190610aaf565b6101bd565b6040516100b8959493929190610bc5565b60405180910390f35b6100db60048036038101906100d69190610aaf565b61033f565b6040516100ec959493929190610bc5565b60405180910390f35b61010f600480360381019061010a9190610c52565b6104a5565b604051610120959493929190610bc5565b60405180910390f35b61013161060b565b60405161013e9190610c7f565b60405180910390f35b61014f610611565b60405161015c9190610c9a565b60405180910390f35b61017f600480360381019061017a9190610df1565b6106b8565b005b61018961099a565b6040516101969190610c7f565b60405180910390f35b6101a76109b9565b6040516101b49190610c7f565b60405180910390f35b6000806000606080600060016000888152602001908152602001600020905080600001548160010160009054906101000a900473ffffffffffffffffffffffffffffffffffffffff168260020154836003018460040181805461021f90610eab565b80601f016020809104026020016040519081016040528092919081815260200182805461024b90610eab565b80156102985780601f1061026d57610100808354040283529160200191610298565b820191906000526020600020905b81548152906001019060200180831161027b57829003601f168201915b505050505091508080546102ab90610eab565b80601f01602080910402602001604051908101604052809291908181526020018280546102d790610eab565b80156103245780601f106102f957610100808354040283529160200191610324565b820191906000526020600020905b81548152906001019060200180831161030757829003601f168201915b50505050509050955095509550955095505091939590929450565b60016020528060005260406000206000915090508060000154908060010160009054906101000a900473ffffffffffffffffffffffffffffffffffffffff169080600201549080600301805461039490610eab565b80601f01602080910402602001604051908101604052809291908181526020018280546103c090610eab565b801561040d5780601f106103e25761010080835404028352916020019161040d565b820191906000526020600020905b8154815290600101906020018083116103f057829003601f168201915b50505050509080600401805461042290610eab565b80601f016020809104026020016040519081016040528092919081815260200182805461044e90610eab565b801561049b5780601f106104705761010080835404028352916020019161049b565b820191906000526020600020905b81548152906001019060200180831161047e57829003601f168201915b5050505050905085565b60026020528060005260406000206000915090508060000154908060010160009054906101000a900473ffffffffffffffffffffffffffffffffffffffff16908060020154908060030180546104fa90610eab565b80601f016020809104026020016040519081016040528092919081815260200182805461052690610eab565b80156105735780601f1061054857610100808354040283529160200191610573565b820191906000526020600020905b81548152906001019060200180831161055657829003601f168201915b50505050509080600401805461058890610eab565b80601f01602080910402602001604051908101604052809291908181526020018280546105b490610eab565b80156106015780601f106105d657610100808354040283529160200191610601565b820191906000526020600020905b8154815290600101906020018083116105e457829003601f168201915b5050505050905085565b60005481565b60606001600080548152602001908152602001600020600301805461063590610eab565b80601f016020809104026020016040519081016040528092919081815260200182805461066190610eab565b80156106ae5780601f10610683576101008083540402835291602001916106ae565b820191906000526020600020905b81548152906001019060200180831161069157829003601f168201915b5050505050905090565b60008251116106fc576040517f08c379a00000000000000000000000000000000000000000000000000000000081526004016106f390610f29565b60405180910390fd5b60008081548092919061070e90610f78565b919050555060006040518060a0016040528060005481526020018573ffffffffffffffffffffffffffffffffffffffff1681526020014281526020018481526020018381525090508060016000805481526020019081526020016000206000820151816000015560208201518160010160006101000a81548173ffffffffffffffffffffffffffffffffffffffff021916908373ffffffffffffffffffffffffffffffffffffffff1602179055506040820151816002015560608201518160030190805190602001906107e29291906109c2565b5060808201518160040190805190602001906107ff9291906109c2565b5090505080600260008673ffffffffffffffffffffffffffffffffffffffff1673ffffffffffffffffffffffffffffffffffffffff1681526020019081526020016000206000820151816000015560208201518160010160006101000a81548173ffffffffffffffffffffffffffffffffffffffff021916908373ffffffffffffffffffffffffffffffffffffffff1602179055506040820151816002015560608201518160030190805190602001906108ba9291906109c2565b5060808201518160040190805190602001906108d79291906109c2565b509050506003849080600181540180825580915050600190039060005260206000200160009091909190916101000a81548173ffffffffffffffffffffffffffffffffffffffff021916908373ffffffffffffffffffffffffffffffffffffffff1602179055508373ffffffffffffffffffffffffffffffffffffffff167f91a4e6d27afd912a8ff0e66acff84eb9e1549236e2dfd82017884c33f62cbb1160005442868660405161098c9493929190610fc1565b60405180910390a250505050565b6000600160008054815260200190815260200160002060020154905090565b60008054905090565b8280546109ce90610eab565b90600052602060002090601f0160209004810192826109f05760008555610a37565b82601f10610a0957805160ff1916838001178555610a37565b82800160010185558215610a37579182015b82811115610a36578251825591602001919060010190610a1b565b5b509050610a449190610a48565b5090565b5b80821115610a61576000816000905550600101610a49565b5090565b6000604051905090565b600080fd5b600080fd5b6000819050919050565b610a8c81610a79565b8114610a9757600080fd5b50565b600081359050610aa981610a83565b92915050565b600060208284031215610ac557610ac4610a6f565b5b6000610ad384828501610a9a565b91505092915050565b610ae581610a79565b82525050565b600073ffffffffffffffffffffffffffffffffffffffff82169050919050565b6000610b1682610aeb565b9050919050565b610b2681610b0b565b82525050565b600081519050919050565b600082825260208201905092915050565b60005b83811015610b66578082015181840152602081019050610b4b565b83811115610b75576000848401525b50505050565b6000601f19601f8301169050919050565b6000610b9782610b2c565b610ba18185610b37565b9350610bb1818560208601610b48565b610bba81610b7b565b840191505092915050565b600060a082019050610bda6000830188610adc565b610be76020830187610b1d565b610bf46040830186610adc565b8181036060830152610c068185610b8c565b90508181036080830152610c1a8184610b8c565b90509695505050505050565b610c2f81610b0b565b8114610c3a57600080fd5b50565b600081359050610c4c81610c26565b92915050565b600060208284031215610c6857610c67610a6f565b5b6000610c7684828501610c3d565b91505092915050565b6000602082019050610c946000830184610adc565b92915050565b60006020820190508181036000830152610cb48184610b8c565b905092915050565b600080fd5b600080fd5b7f4e487b7100000000000000000000000000000000000000000000000000000000600052604160045260246000fd5b610cfe82610b7b565b810181811067ffffffffffffffff82111715610d1d57610d1c610cc6565b5b80604052505050565b6000610d30610a65565b9050610d3c8282610cf5565b919050565b600067ffffffffffffffff821115610d5c57610d5b610cc6565b5b610d6582610b7b565b9050602081019050919050565b82818337600083830152505050565b6000610d94610d8f84610d41565b610d26565b905082815260208101848484011115610db057610daf610cc1565b5b610dbb848285610d72565b509392505050565b600082601f830112610dd857610dd7610cbc565b5b8135610de8848260208601610d81565b91505092915050565b600080600060608486031215610e0a57610e09610a6f565b5b6000610e1886828701610c3d565b935050602084013567ffffffffffffffff811115610e3957610e38610a74565b5b610e4586828701610dc3565b925050604084013567ffffffffffffffff811115610e6657610e65610a74565b5b610e7286828701610dc3565b9150509250925092565b7f4e487b7100000000000000000000000000000000000000000000000000000000600052602260045260246000fd5b60006002820490506001821680610ec357607f821691505b60208210811415610ed757610ed6610e7c565b5b50919050565b7f4e616d652063616e6e6f7420626520656d707479000000000000000000000000600082015250565b6000610f13601483610b37565b9150610f1e82610edd565b602082019050919050565b60006020820190508181036000830152610f4281610f06565b9050919050565b7f4e487b7100000000000000000000000000000000000000000000000000000000600052601160045260246000fd5b6000610f8382610a79565b91507fffffffffffffffffffffffffffffffffffffffffffffffffffffffffffffffff821415610fb657610fb5610f49565b5b600182019050919050565b6000608082019050610fd66000830187610adc565b610fe36020830186610adc565b8181036040830152610ff58185610b8c565b905081810360608301526110098184610b8c565b90509594505050505056fea264697066735822122008565928caf1eedd833efd732b4c4d413909a477e30e57a08b65630d4ecb201364736f6c63430008080033",
  "linkReferences": {},
  "deployedLinkReferences": {}
}